:0400000066EF1CF09B
:1010000000010000000A00000064000000E8030086
:101010000010270000A086010040420F0080969833
:101020000000E1F50500CA9A3B00803FCDCC3DD7DA
:10103000233C12833AB7D138C62737388635C0D615
:1010400033CC2B32708930E7DB2EE53C1E42A20DFB
:1010500000803F00204100C842007A44401C4650B6
:10106000C34724744997184BBCBE4C6B6E4E031596
:101070005079AD60F3497131323334353637383910
:101080002A3023FF000102030405060708095072F5
:10109000657373202320746F20436F6E742E005489
:1010A000656D7020436F6E74726F6C2E2E2E00452E
:1010B0006E7465722054656D7020526566005465CB
:1010C0006D70205265663A200054656D702069731A
:1010D0003A20004175746F6D6174696300252E3389
:1010E0006700202000004E0E5A6E000E5B6E53EF1C
:1010F0000FF0250E7018D8B407D04AC0D9FF4BC0E6
:10110000DAFF70C0DFFF6BD3000E606E000E5F6E03
:101110004CC0F6FF4DC0F7FF0800F5502E0AD8A4CA
:1011200030D0608C4C4A4D2A000E6C6E000E6B6EF7
:101130001CD06BC00FF06CC010F0000E126E0A0EC7
:10114000116E2DEC1CF04CC0F6FF4DC0F7FF0800EF
:10115000F5500F26000E1022D00E0F246B6EFF0EDE
:1011600010206C6E4C4A4D2A00D04CC0F6FF4DC08A
:10117000F7FF0800F55077EC1CF0D8A00FD0D9D7B6
:101180000DD0000E6C6E000E6B6E608807D062EFA3
:101190000FF0608216D053EF0FF013D04CC0F6FF63
:1011A0004DC0F7FF4C4A4D2A0800F5CF70F0705043
:1011B000000AD8B462EF0FF0670AD8B4EAD753EF49
:1011C0000FF0070E6014D8B415EF0FF060A805D02B
:1011D000000E6C6E060E6B6E00D05AC0D9FF5BC05D
:1011E000DAFFDECF6DF0DECF6EF0DDCF6FF0030EF5
:1011F0005A26000E5B226FAE11D06DC019F06EC082
:101200001AF06FC01BF054EC1CF019C06DF01AC03E
:101210006EF01BC06FF0030E5F1200D0000E6A6EFE
:10122000000E696E6D506E106F10D8B485D0820EAE
:10123000516EFF0E526E6DC053F06EC054F06FC011
:1012400055F070C056F0100E05D0D8905632553279
:1012500054325332E82EF9D753505124696E000EA0
:1012600052206A6E6906D8A06A0669C00FF06AC08B
:1012700010F0000E126E030E116E2DEC1CF00FC05C
:1012800069F010C06AF069C007F06AC008F0000E8B
:101290000A6E0A0E096E08EC19F007C069F008C062
:1012A0006AF06AAE04D06906D8A06A0600D0695018
:1012B00000086AEC0FF02BC061F02CC062F02DC06A
:1012C00063F061C01CF062C01DF063C01EF06DC011
:1012D0001FF06EC020F06FC021F020EC16F01CC093
:1012E00061F01DC062F01EC063F061C041F062C0D9
:1012F00042F063C043F0000E446E800E456E3F0E18
:10130000466E53EC19F0D8B004D06906D8A06A062E
:1013100013D061C041F062C042F063C043F0000EE0
:10132000446E200E456E410E466E53EC19F0D8A067
:1013300003D0694A6A2A00D06ABE05D06A5006E125
:101340006904D8B003D0010E706E02D069C070F08D
:1013500060A248D26AAE06D0FC0E695CFF0E6A58E5
:10136000D8A00AD06B50695C6A50800A516E6C50EC
:10137000800A5158D8A036D26B506C10D8A460A205
:1013800004D06B06D8A06C0600D06C5004E1090EA6
:101390006B5CD8A003D0080E706E03D06BC070F0E9
:1013A00000D06D506E106F10D8B4DED06DC032F02A
:1013B0006EC033F06FC034F07050000869246AECDE
:1013C0000FF02BC035F02CC036F02DC037F084EC78
:1013D00017F032C06DF033C06EF034C06FF06DC0E6
:1013E00038F06EC039F06FC03AF06DC001F06EC0D9
:1013F00002F06FC003F011EC17F001C010F002C052
:1014000011F003C012F004C013F05DEC1AF010C02C
:1014100019F011C01AF012C01BF054EC1CF019C0E6
:1014200035F01AC036F01BC037F031EC14F035C07F
:1014300041F036C042F037C043F0000E446E000E5B
:10144000456E3F0E466E53EC19F0D8A015D06DC016
:1014500035F06EC036F06FC037F0000E386E000EFB
:10146000396E3F0E3A6E31EC14F035C06DF036C077
:101470006EF037C06FF000D070C051F0526A51BEAC
:101480005206D89051365236D89051365236040E04
:101490005126000E5222010E5124F66E100E5220DB
:1014A000F76E6DC001F06EC002F06FC003F011EC7A
:1014B00017F00900F550015C0900F55002580900C9
:1014C000F55003580900F5500458D8A017D06DC046
:1014D0001CF06EC01DF06FC01EF0CD0E1F6ECC0E46
:1014E000206E3D0E216E20EC16F01CC06DF01DC06C
:1014F0006EF01EC06FF0694A6A2A36D07050040D33
:10150000010EF324F66E100EF420F76E6DC001F09C
:101510006EC002F06FC003F011EC17F00900F55037
:10152000015C0900F55002580900F5500358090004
:10153000F5500458D8B018D06DC01CF06EC01DF026
:101540006FC01EF0000E1F6E200E206E410E216E29
:1015500020EC16F01CC06DF01DC06EF01EC06FF0C8
:101560006906D8A06A0600D0030E5F14516E000E03
:101570006014526E51505210D8B409D04AC0D9FFED
:101580004BC0DAFF2D0EDF6E4A4A4B2A00D06DC0E9
:1015900001F06EC002F06FC003F011EC17F001C053
:1015A00065F002C066F003C067F004C068F065C073
:1015B00001F066C002F067C003F068C004F070502C
:1015C000040D010EF324F66E100EF420F76E0900E0
:1015D000F5CF05F00900F5CF06F00900F5CF07F0CB
:1015E0000A00F5CF08F09EEC19F00150300F4AC008
:1015F000D9FF4BC0DAFFDF6E4A4A4B2A65C001F0C3
:1016000066C002F067C003F068C004F07050040DBB
:10161000010EF324F66E100EF420F76E0900F5CFDC
:1016200005F00900F5CF06F00900F5CF07F00A0034
:10163000F5CF08F025EC1AF001C065F002C066F0A5
:1016400003C067F004C068F06B506C10D8B485D04C
:101650004AC0D9FF4BC0DAFF2E0EDF6E4A4A4B2A32
:1016600070506B5E000E70BEFF0E6C5A5ED060A2B2
:101670000ED06550661067106810D8A408D0000E10
:10168000706E70506B6E6C6A6BBE6C0660D065C01D
:1016900001F066C002F067C003F068C004F070504B
:1016A000040D010EF324F66E100EF420F76E0900FF
:1016B000F5CF05F00900F5CF06F00900F5CF07F0EA
:1016C0000A00F5CF08F09EEC19F00150300F4AC027
:1016D000D9FF4BC0DAFFDF6E4A4A4B2A65C001F0E2
:1016E00066C002F067C003F068C004F07050040DDB
:1016F000010EF324F66E100EF420F76E0900F5CFFC
:1017000005F00900F5CF06F00900F5CF07F00A0053
:10171000F5CF08F025EC1AF001C065F002C066F0C4
:1017200003C067F004C068F000D070067028D8B419
:101730000ED09DD70CD04AC0D9FF4BC0DAFF300E77
:10174000DF6E4A4A4B2A6B06D8A06C0600D06B505D
:101750006C10D8B402D0EFD700D04AC0D9FF4BC02C
:10176000DAFF650EDF6E4A4A4B2A6AAE0DD0696C0D
:101770006A1ED8B06A2A4AC0D9FF4BC0DAFF2D0EC4
:1017800008D04A4A4B2A07D04AC0D9FF4BC0DAFFDB
:101790002B0EDF6EF6D769C007F06AC008F0000EA6
:1017A0000A6E0A0E096E08EC19F00750300F4AC095
:1017B000D9FF4BC0DAFFDF6E4A4A4B2A69C001F0FD
:1017C0006AC002F0000E046E0A0E036EE4EC19F01B
:1017D0000150300F4AC0D9FF4BC0DAFF61D34A4AEB
:1017E0004B2A61D360A2EED06AAE0BD0010E692401
:1017F000516E000E6A20526E51506B5E52506C5A00
:1018000000D06DC001F06EC002F06FC003F011ECAB
:1018100017F001C065F002C066F003C067F004C0B5
:1018200068F0000E706E0A0E7018D8B41CD001D08B
:101830001AD07050040D010EF324F66E100EF42031
:10184000F76E0900F550655C0900F550665809000F
:10185000F55067580900F5506858D8A004D001D059
:1018600002D0702AE0D770506B5E000E70BEFF0E83
:101870006C5A6CBE06D06C501BE10D0E6B5CD8B080
:1018800017D06DC035F06EC036F06FC037F06B50BA
:101890000FEC13F02BC038F02CC039F02DC03AF00B
:1018A00031EC14F035C06DF036C06EF037C06FF01B
:1018B0006B506AEC0FF02BC05CF02CC05DF02DC0BB
:1018C0005EF05CC01CF05DC01DF05EC01EF06DC01F
:1018D00038F06EC039F06FC03AF065C010F066C0E5
:1018E00011F067C012F068C013F05DEC1AF010C080
:1018F00019F011C01AF012C01BF054EC1CF019C002
:1019000035F01AC036F01BC037F031EC14F035C09A
:101910001FF036C020F037C021F020EC16F01CC0BC
:101920005CF01DC05DF01EC05EF05CC001F05DC0EB
:1019300002F05EC003F011EC17F001C065F002C0C8
:1019400066F003C067F004C068F01ED065C001F007
:1019500066C002F067C003F068C004F00A0E056EAE
:10196000000E066E000E076E000E086E9EEC19F05B
:1019700001C065F002C066F003C067F004C068F003
:101980006B06D8A06C0600D06B506C10D8B43AD05F
:1019900065C001F066C002F067C003F068C004F0E3
:1019A0000A0E056E000E066E000E076E000E086E23
:1019B00025EC1AF00150021003100410D8A422D014
:1019C000C5D720D06CBE06D06C501CE10D0E6B5CF0
:1019D000D8B018D06DC035F06EC036F06FC037F09B
:1019E0006B500FEC13F02BC038F02CC039F02DC029
:1019F0003AF031EC14F035C06DF036C06EF037C0FF
:101A00006FF000D06ABE06D06A5020E10A0E695C11
:101A1000D8B01CD06D506E106F10D8B46DD06DC0A2
:101A200001F06EC002F06FC003F011EC17F001502E
:101A3000021003100410D8B46ABE5ED06A5006E1EA
:101A4000020E695CD8B002D057D000D061C041F01E
:101A500062C042F063C043F0700E446E890E456E62
:101A6000400E466E53EC19F0D8B002D0F70E01D0FC
:101A7000F80E6926FF0E6A2200D069506AEC0FF05A
:101A80002BC061F02CC062F02DC063F017D06DC088
:101A900001F06EC002F06FC003F061C004F062C0DC
:101AA00005F063C006F09BEC15F001C065F002C0C4
:101AB00066F003C067F004C068F017D06DC001F095
:101AC0006EC002F06FC003F061C004F062C005F0A8
:101AD00063C006F013EC15F001C065F002C066F0BB
:101AE00003C067F004C068F000D0000E6D6E000EF9
:101AF0006E6E000E6F6E33D06DC001F06EC002F0DE
:101B00006FC003F011EC17F001C065F002C066F081
:101B100003C067F004C068F06DC041F06EC042F0D1
:101B20006FC043F065C010F066C011F067C012F0DE
:101B300068C013F05DEC1AF010C044F011C045F01D
:101B400012C046F05DEC1BF041C06DF042C06EF07B
:101B500043C06FF0000E6A6E000E696E00D0010E79
:101B6000706E0A0E7018D8B41CD001D01AD0705004
:101B7000040D010EF324F66E100EF420F76E09002A
:101B8000F550655C0900F55066580900F550675836
:101B90000900F5506858D8A004D001D002D0702AAE
:101BA000E0D7030E5F14516E000E6014526E515058
:101BB0005210D8B451D04AC0D9FF4BC0DAFF2D0E15
:101BC00049D04A4A4B2A48D065C001F066C002F0AD
:101BD00067C003F068C004F07050040D010EF324D8
:101BE000F66E100EF420F76E0900F5CF05F009002F
:101BF000F5CF06F00900F5CF07F00A00F5CF08F0A1
:101C00009EEC19F001C061F002C062F003C063F005
:101C100004C064F061C001F062C002F063C003F070
:101C200064C004F00A0E056E000E066E000E076E0C
:101C3000000E086E25EC1AF001C061F002C062F0DF
:101C400003C063F004C064F06150300F4AC0D9FF94
:101C50004BC0DAFFDF6EB5D770067028D8B40ED04F
:101C6000B3D70CD04AC0D9FF4BC0DAFF300EDF6EBD
:101C70004A4A4B2A6906D8A06A0600D06ABE05D037
:101C80006A50F0E16904D8B0EDD76CBE09D06C5051
:101C900004E1090E6B5CD8A003D0080E706E03D06F
:101CA0006BC070F000D070506B5E000E70BEFF0E07
:101CB0006C5A7050D8B409D04AC0D9FF4BC0DAFF73
:101CC0002E0EDF6E4A4A4B2A00D070506AEC0FF09D
:101CD0002BC057F02CC058F02DC059F06DC01FF02C
:101CE0006EC020F06FC021F057C01CF058C01DF02E
:101CF00059C01EF020EC16F01CC001F01DC002F00F
:101D00001EC003F011EC17F001C065F002C066F0D0
:101D100003C067F004C068F070D065C001F066C011
:101D200002F067C003F068C004F07050040D010EAB
:101D3000F324F66E100EF420F76E0900F5CF05F0CF
:101D40000900F5CF06F00900F5CF07F00A00F5CF3E
:101D500008F09EEC19F001C061F002C062F003C00F
:101D600063F004C064F061C001F062C002F063C0BF
:101D700003F064C004F00A0E056E000E066E000E3D
:101D8000076E000E086E25EC1AF001C061F002C06B
:101D900062F003C063F004C064F06150300F4AC0C9
:101DA000D9FF4BC0DAFFDF6E4A4A4B2A65C001F00B
:101DB00066C002F067C003F068C004F07050040D04
:101DC000010EF324F66E100EF420F76E0900F5CF25
:101DD00005F00900F5CF06F00900F5CF07F00A007D
:101DE000F5CF08F025EC1AF001C065F002C066F0EE
:101DF00003C067F004C068F000D070067028D8B443
:101E00000ED08BD70CD04AC0D9FF4BC0DAFF300EB2
:101E1000DF6E4A4A4B2A6B06D8A06C0600D06B5086
:101E20006C10D8B440D0EFD73ED06B506C10D8A413
:101E300009D06550661067106810D8A403D06B4AAB
:101E40006C2A00D0800E70BE7F0E516E6B50705C9D
:101E50006C50800A5158D8B003D06BC070F011D0CC
:101E60006C50800A516E70506B5C800E70BE7F0E9D
:101E70005158D8B006D070506B6E6C6A6BBE6C0651
:101E800000D0030E5F14516E000E6014526E51505C
:101E90005210D8B408D04AC0D9FF4BC0DAFF2D0E7B
:101EA000DF6E9DD400D04CC0F6FF4DC0F7FF4C4A0A
:101EB0004D2A0800F5CF70F07050D8B403D079EFF8
:101EC00008F000D04AC0D9FF4BC0DAFF000EDF6E29
:101ED00000D01200316E31AEEFD0316C3150800A3B
:101EE000120FD8A08DD0000E126E030E116E000ED0
:101EF0000A6E0A0E096E000E046E640E036E3150F7
:101F0000016E026A01BE0206E4EC19F001C007F09E
:101F100002C008F008EC19F0090E07240F6E000E3D
:101F20000820106E2DEC1CF0290E0F24F66E100EFA
:101F30001020F76E0900F5CF1FF00900F5CF20F053
:101F40000A00F5CF21F0000E0A6E640E096E3150C2
:101F5000076E086A07BE080608EC19F0120E07247F
:101F60000F6E000E0820106E000E126E030E116E22
:101F70002DEC1CF0290E0F24F66E100E1020F76EBB
:101F80000900F5CF1CF00900F5CF1DF00A00F5CFD0
:101F90001EF020EC16F01CC02EF01DC02FF01EC04D
:101FA00030F02EC01CF02FC01DF030C01EF0000E0F
:101FB000126E030E116E000E046E0A0E036E315087
:101FC000016E026A01BE0206E4EC19F001C00FF0D6
:101FD00002C010F02DEC1CF0290E0F24F66E100E2E
:101FE0001020F76E0900F5CF1FF00900F5CF20F0A3
:101FF0000A00F5CF21F020EC16F041D15AD154D08F
:102000003150800A750FD8A04FD0000E0A6E0A0E0C
:10201000096E3150076E086A07BE080608EC19F011
:10202000090E07240F6E000E0820106E000E126EAF
:10203000030E116E2DEC1CF0290E0F24F66E100EFF
:102040001020F76E0900F5CF1CF00900F5CF1DF048
:102050000A00F5CF1EF0000E126E030E116E000E78
:10206000046E0A0E036E3150016E026A01BE020652
:10207000E4EC19F001C00FF002C010F02DEC1CF0E0
:10208000290E0F24F66E100E1020F76E0900F5CF02
:102090001FF00900F5CF20F00A00F5CF21F020EC69
:1020A00016F0EDD006D100D03150030D290EF324E7
:1020B000F66E100EF2D0FDD03150800A120FD8A06B
:1020C0008DD0000E126E030E116E000E0A6E0A0EF7
:1020D000096E000E046E640E036E3150016E026ACA
:1020E00001BE0206E4EC19F001C007F002C008F0DE
:1020F00008EC19F0090E07240F6E000E0820106E70
:102100002DEC1CF0500E0F24F66E100E1020F76E02
:102110000900F5CF1FF00900F5CF20F00A00F5CF38
:1021200021F0000E0A6E640E096E3150076E086AC7
:1021300007BE080608EC19F0120E07240F6E000EF9
:102140000820106E000E126E030E116E2DEC1CF0A6
:10215000500E0F24F66E100E1020F76E0900F5CF0A
:102160001CF00900F5CF1DF00A00F5CF1EF020ECA1
:1021700016F01CC02EF01DC02FF01EC030F02EC077
:102180001CF02FC01DF030C01EF0000E126E030EAA
:10219000116E000E046E0A0E036E3150016E026A5B
:1021A00001BE0206E4EC19F001C00FF002C010F00D
:1021B0002DEC1CF0500E0F24F66E100E1020F76E52
:1021C0000900F5CF1FF00900F5CF20F00A00F5CF88
:1021D00021F020EC16F053D06CD059D03150800A49
:1021E000750FD8A054D0000E0A6E0A0E096E315039
:1021F000076E086A07BE080608EC19F0090E0724E6
:102200000F6E000E0820106E000E126E030E116E7F
:102210002DEC1CF0500E0F24F66E100E1020F76EF1
:102220000900F5CF1CF00900F5CF1DF00A00F5CF2D
:102230001EF0000E126E030E116E000E046E0A0EDA
:10224000036E3150016E026A01BE0206E4EC19F021
:1022500001C00FF002C010F02DEC1CF0500E0F2446
:10226000F66E100E1020F76E0900F5CF1FF0090072
:10227000F5CF20F00A00F5CF21F020EC16F01CC0BD
:102280002BF01DC02CF01EC02DF013D000D031500B
:10229000030D500EF324F66E100EF420F76E0900B5
:1022A000F5CF2BF00900F5CF2CF00A00F5CF2DF07B
:1022B00000D01200760ED36EF00E946E000E936E68
:1022C000000E816E928092929294000E8A6E99EC2A
:1022D0001CF0D1EC1CF0030E066E010E88EC1CF015
:1022E000D30E036E100E046EDDEC1BF0010E066EB5
:1022F000020E88EC1CF09F0E036E100E046EDDECD7
:102300001BF0020EF9EC1BF0B5EC1CF080928094EF
:1023100000D0B5EC1CF0010E066E010E88EC1CF02E
:10232000AF0E036E100E046EDDEC1BF0000E7F6E20
:10233000000E7E6E010E066E020E88EC1CF0BE0EC4
:10234000036E100E046EDDEC1BF000D09CEC16F05A
:1023500001C076F002C077F0000E77BEFF0E786EF7
:10236000796E230E7618771078107910D8B43AD099
:1023700001D038D02A0E7618771078107910D8B49A
:10238000C8D701D0C6D77628771078107910D8B47E
:10239000DDD776507FEC1BF0D00E716EFF0E726EA3
:1023A00076C073F077C074F0715073267250742247
:1023B000840E7324F66E100E7420F76E0800F5CFAD
:1023C00075F07EC00FF07FC010F0000E126E0A0E86
:1023D000116E2DEC1CF075500F247E6E000E102037
:1023E0007F6EB4D7B5EC1CF0010E066E010E88ECC2
:1023F0001CF0BE0E036E100E046EDDEC1BF0830E9F
:10240000116E000E126E7EC013F07FC014F0000E2D
:10241000166E0A0E156E3AEC1BF0830E036E000E5C
:10242000046E14EC1CF0010E066E020E88EC1CF01B
:102430008E0E036E100E046EDDEC1BF0000E766E39
:10244000000E776E000E786E000E796E14D000D0FC
:102450009CEC16F001C076F002C077F0000E77BE5B
:10246000FF0E786E796E7650771078107910D8A4B8
:1024700002D0EED700D0230E76187710781079109E
:10248000D8A4E6D7B5EC1CF0010E066E010E88EC60
:102490001CF0BE0E036E100E046EDDEC1BF0830EFE
:1024A000036E000E046E14EC1CF0DF0E7FEC1BF0CC
:1024B000430E7FEC1BF000D0000E0001816F000E78
:1024C000806FF0EC1CF000D0E1EC1CF00009D8A407
:1024D000FBD7D9EC1CF001C080F002C081F0000EE7
:1024E0001F6EA00E206E400E216E80C009F081C0CC
:1024F0000AF041EC1CF009C01CF00AC01DF00BC032
:102500001EF020EC16F01CC032F01DC033F01EC0CF
:1025100034F0D70E356E230E366E410E376E84ECD6
:1025200017F032C07AF033C07BF034C07CF08D0EEF
:102530004A6E000E4B6EDD0E4C6E100E4D6E7AC064
:102540004EF07BC04FF07CC050F073EC08F0010EF1
:10255000066E020E88EC1CF0C90E036E100E046E9F
:10256000DDEC1BF08D0E036E000E046E14EC1CF0FF
:10257000DF0E7FEC1BF0430E7FEC1BF0E20E036ED0
:10258000100E046EDDEC1BF07AC041F07BC042F00F
:102590007CC043F07EC009F07FC00AF041EC1CF023
:1025A00009C044F00AC045F00BC046F053EC19F0E6
:1025B000D8B003D08082809400D07EC009F07FC064
:1025C0000AF041EC1CF009C041F00AC042F00BC017
:1025D00043F07AC044F07BC045F07CC046F053EC39
:1025E00019F0D8B003D08092808400D07EC009F06A
:1025F0007FC00AF041EC1CF07A5009180AE17B50C8
:102600000A1807E17C500B18D8A403D0809280945C
:1026100000D00A0EF9EC1BF04FD700EF00F0346E3B
:102620006D0E34649BD0000E126E030E116E000E00
:102630000A6E0A0E096E000E046E640E036E34C03C
:1026400001F0026AE4EC19F001C007F002C008F0E2
:1026500008EC19F0090E07240F6E000E0820106E0A
:102660002DEC1CF0290E0F24F66E100E1020F76EC4
:102670000900F5CF1FF00900F5CF20F00A00F5CFD3
:1026800021F0000E0A6E640E096E34C007F0086A6D
:1026900008EC19F0120E07240F6E000E0820106EC1
:1026A000000E126E030E116E2DEC1CF0290E0F247D
:1026B000F66E100E1020F76E0900F5CF1CF0090021
:1026C000F5CF1DF00A00F5CF1EF020EC16F01CC06F
:1026D00031F01DC032F01EC033F0000E126E030E3A
:1026E000116E000E046E0A0E036E34C001F0026A11
:1026F000E4EC19F001C00FF002C010F02DEC1CF05A
:10270000290E0F24F66E100E1020F76E0900F5CF7B
:102710001FF00900F5CF20F00A00F5CF21F031C0FD
:102720001CF032C01DF033C01EF020EC16F01CC0AF
:102730002EF01DC02FF01EC030F02EC01CF02FC098
:102740001DF030C01EF0000E1F6E000E206E3F0EFA
:10275000216E20EC16F07DD083D062D00A0E346456
:102760005FD0000E126E030E116E000E046E0A0E84
:10277000036E34C001F0026AE4EC19F001C00FF0FE
:1027800002C010F02DEC1CF0290E0F24F66E100E76
:102790001020F76E0900F5CF1FF00900F5CF20F0EB
:1027A0000A00F5CF21F0000E0A6E0A0E096E34C041
:1027B00007F0086A08EC19F0090E07240F6E000EE6
:1027C0000820106E000E126E030E116E2DEC1CF020
:1027D000290E0F24F66E100E1020F76E0900F5CFAB
:1027E0001CF00900F5CF1DF00A00F5CF1EF020EC1B
:1027F00016F01CC031F01DC032F01EC033F031C0E5
:102800001CF032C01DF033C01EF0000E1F6E000E13
:10281000206E3F0E216E20EC16F01BD021D000D090
:102820003450030D290EF324F66E100EF420F76ECB
:102830000900F5CF1CF00900F5CF1DF00A00F5CF17
:102840001EF0000E1F6E000E206E3F0E216E20EC5B
:1028500016F01CC02BF01DC02CF01EC02DF000D0B7
:10286000120037C03BF03C6A3D6A36343B3601E328
:102870003C803B50406E3AC03BF03C6A3D6A393484
:102880003B3601E33C803B503F6E4050D8B40BD008
:102890003F50405CD8B00ED0405000083F243B6E03
:1028A000180E3B6407D038C035F039C036F03AC056
:1028B00037F0B8D03F50D8B40BD040503F5CD8B0C0
:1028C0000ED03F50000840243B6E180E3B6407D0EA
:1028D00035C035F036C036F037C037F0A3D0060E1D
:1028E0003E6E37AE02D03E8E00D03ABE3E8C368E63
:1028F000FF0E3516FF0E3616000E3716398EFF0EF8
:102900003816FF0E3916000E3A163F50405CD8B00C
:102910001ED0D890383639363A363F0640503F18E8
:10292000D8B40FD03E063EC03BF0070E3B16D8B4DD
:1029300008D0EFD706D0D890373236323532402A19
:1029400000D03F504018D8B424D0F5D722D0405002
:102950003F5CD8B01ED0D890353636363736400674
:1029600040503F18D8B40FD03E063EC03BF0070E93
:102970003B16D8B408D0EFD706D0D8903A323932C7
:1029800038323F2A00D03F504018D8B402D0F5D793
:1029900000D03EAE0CD0FF0E351AFF0E361AFF0ED9
:1029A000371A010E3526000E3622000E37223EACB5
:1029B0000DD0FF0E381AFF0E391AFF0E3A1A010E0B
:1029C0003826000E3922000E3A2200D0000E3E6E4C
:1029D000355038263650392237503A223AAE0FD089
:1029E000FF0E381AFF0E391AFF0E3A1A010E38265A
:1029F000000E3922000E3A22010E3E6E00D038C081
:102A000001F039C002F03AC003F040C004F03EC00B
:102A100005F0F5EC17F001C035F002C036F003C048
:102A200037F000D0120003C007F0086A096A0234C8
:102A3000073601E3088007500F6E0F50D8A402D06C
:102A40005DD078D006C007F0086A096A05340736F9
:102A500001E3088007500E6E0E50D8A402D04ED06D
:102A600069D0028EFF0E0116FF0E0216000E03162D
:102A7000058EFF0E0416FF0E0516000E0616000E3C
:102A80000A6E000E0B6E000E0C6E000E0D6E7F0EA9
:102A90000F5E0E50980F0F5E180E0E6ED8900A360D
:102AA0000B360C360D360450015C055002580650AA
:102AB0000358D8A007D00450015E0550025A0650B2
:102AC000035A0A80D8900136023603360E2EE6D716
:102AD00000D00FAE10D00F50800A970FD8B003D09F
:102AE0000DD028D000D0D8900D320C320B320A32E3
:102AF0000F3EF9D717D0170E0F6411D0000E016EDC
:102B0000000E026E000E036E000E046E13D007D08E
:102B1000D8900A360B360C360D360F0600D00F5003
:102B2000D8A4F6D70AC001F00BC002F00CC003F025
:102B30000DC004F01200033404340C6E0C50D8A401
:102B400002D061D07CD0063407340B6E0B50D8A471
:102B500002D059D074D0038EFF0E0116FF0E02165C
:102B6000FF0E0316000E0416068EFF0E0416FF0E4F
:102B70000516FF0E0616000E0716000E076E000E55
:102B8000086E000E096E000E0A6E7F0E0C5E0B5072
:102B9000A00F0C5E200E0B6E00D0D89007360836C2
:102BA00009360A360450015C055002580650035895
:102BB00007500458D8A00AD00450015E0550025AAC
:102BC0000650035A0750045A078000D0D8900136A7
:102BD0000236033604360B2EE0D700D00CAE10D0F0
:102BE0000C50800A9F0FD8B003D00DD028D000D051
:102BF000D8900A320932083207320C3EF9D717D082
:102C00001F0E0C6411D0000E016E000E026E000E3D
:102C1000036E000E046E13D007D0D8900736083626
:102C200009360A360C0600D00C50D8A4F6D707C0D7
:102C300001F008C002F009C003F00AC004F012005D
:102C40001EC022F0236A246A1D34223601E3238049
:102C50002250256E2550D8A402D00ED06CD021C0B1
:102C600022F0236A246A2034223601E32380225092
:102C70002A6E2A50D8A407D0000E1C6E000E1D6EBE
:102C8000000E1E6E58D02A507B0F25261EC02AF03B
:102C900021502A1A800E2A161D8E208EFF0E1F1616
:102CA000FF0E2016000E2116000E266E000E276E57
:102CB000000E286E070E296E00D01CA007D01F50F2
:102CC0002626205027222150282200D0D8901E32BC
:102CD0001D321C32D8901F3620362136292EEDD7D2
:102CE00000D0090E296E00D01CA007D01F50262648
:102CF000205027222150282200D0D8901E321D3289
:102D00001C32D890283227322632292EEDD700D017
:102D100026C001F027C002F028C003F025C004F04F
:102D20002AC005F0F5EC17F001C01CF002C01DF040
:102D300003C01EF000D01200000E046E010E056EDE
:102D40004FD051D005C003F0010E03168B5003186D
:102D5000FE0B03188B6E05C003F0D8900332010EF2
:102D6000031603468B500318FD0B03188B6E05C02A
:102D700003F0D8900332D8900332010E03160346B5
:102D800003468B500318FB0B03188B6E05C003F032
:102D9000D8900332D8900332D8900332010E031634
:102DA0000346034603468B500318F70B03188B6E3C
:102DB000030E036E980EE82EFED7032EFCD782B8C2
:102DC00012D001D010D0042A82BA0DD001D00BD07D
:102DD000042A82BC08D001D006D0042AD890053637
:102DE0000F0E0564AFD78B908B928B948B967D5092
:102DF0000418D8B40CD004C07DF00450010D770E37
:102E0000F324F66E100EF420F76E05D009D0830E71
:102E1000F66E100EF76E0800F550016E026A00D0D3
:102E2000120003C005F0066A076A0234053601E3A2
:102E3000068005500F6E0F50D8A402D039D063D051
:102E4000170E056E01C006F002C007F003C008F0BF
:102E50000528096E04D0D890083207320632092EB0
:102E6000FAD706500A6E028EFF0E0116FF0E0216EA
:102E7000000E031601500B6E02500C6E03500D6EC7
:102E80000E6A8E0E0F5E0FAE10D00F50800A8F0F9D
:102E9000D8B003D00DD037D000D0D8900E320D323C
:102EA0000C320B320F3EF9D719D0170E0F6411D028
:102EB000000E016E000E026E000E036E000E046E18
:102EC00022D007D0D8900B360C360D360E360F06B2
:102ED00000D00F50D8B402D0F5D700D00A50D8B4E3
:102EE00009D00E1E0D1E0C1E0B6C000E0C220D22A6
:102EF0000E2200D00BC001F00CC002F00DC003F098
:102F00000EC004F000D0120034C038F0396A3A6ABA
:102F10003334383601E3398038503F6E3F50D8A4FF
:102F200002D00ED061D037C038F0396A3A6A3634F0
:102F3000383601E339803850406E4050D8A407D06D
:102F4000000E326E000E336E000E346E4DD0000E49
:102F50003C6E000E3D6E000E3E6E4050890F3F5E8F
:102F600034C040F03750401A800E4016338EFF0EAA
:102F70003216FF0E3316000E3416368EFF0E35163F
:102F8000FF0E3616000E3716180E3B6E00D0D89086
:102F90003C363D363E363550325C3650335837502D
:102FA0003458D8A007D03550325E3650335A375097
:102FB000345A3C80D8903236333634363B2EE7D7FD
:102FC00000D03CC001F03DC002F03EC003F03FC065
:102FD00004F040C005F0F5EC17F001C032F002C07B
:102FE00033F003C034F000D012000450D8B405D040
:102FF000015002100310D8A40ED0000E016E000E76
:10300000026E000E036E53D006D0042AD89003320D
:103010000232013200D0000E0114066E000E0214BE
:10302000076EFE0E0314086E065007100810D8B481
:103030000ED0EBD70CD0042A010E0126000E02227E
:10304000000E0322D89003320232013200D0000E6B
:103050000114066E000E0214076EFF0E0314086EB4
:10306000065007100810D8B408D0E5D706D00406DB
:10307000D89001360236033600D002BE04D0020ECC
:103080000460F5D700D004B002D0029E00D0D890E2
:103090000432045003120550D8B402D0038E00D07D
:1030A00001C001F002C002F003C003F000D0120022
:1030B000066EF00E8116F00E9316939C939A9398D9
:1030C0008A9C8A9A8A98E8EC1CF0300E9FEC1BF0E0
:1030D000050EA9EC1CF0300E9FEC1BF0010EA9ECC4
:1030E0001CF0320E9FEC1BF000D0BFEC1BF000096F
:1030F000D8B402D0FAD700D0BFEC1BF00009D8A496
:10310000FBD706509FEC1BF000D0BFEC1BF0000972
:10311000D8A4FBD7080E9FEC1BF000D0BFEC1BF02F
:103120000009D8A4FBD70F0E9FEC1BF000D0BFEC1A
:103130001BF00009D8A4FBD7010E9FEC1BF000D0B8
:10314000BFEC1BF00009D8A4FBD7040E9FEC1BF0CA
:1031500000D0BFEC1BF00009D8A4FBD7800EEAEC2E
:103160001AF000D012000AC00EF00BC00FF000D011
:103170000EC001F00FC002F00CC003F00DC004F04F
:10318000BCEC1AF001C00EF002C00FF0084A092A88
:103190000E500F10D8A4ECD708C0D9FF09C0DAFF31
:1031A000000EDF6E0806D8A0090600D00AC001F0A4
:1031B0000BC002F00CC003F00DC004F014EC1BF0C7
:1031C0000150106E0AC001F00BC002F00CC003F0F9
:1031D0000DC004F0BCEC1AF001C00AF002C00BF004
:1031E000090E106402D0070E1026300E102608C0FB
:1031F000D9FF09C0DAFF10C0DFFF0806D8A0090612
:103200000A500B10D8A4D2D7084A092A00D01200BD
:10321000000E0C6E0AAE07D0096C0A1ED8B00A2A3E
:10322000010E0C6E00D008AE07D0076C081ED8B097
:10323000082A010E0C1A00D0000E0E6E000E0D6E44
:1032400009500A10D8B421D0010E0B6E05D0D890C9
:1032500009360A360B2A00D00ABE02D0F8D700D0B1
:10326000D8900D360E360950075C0A500858D8A081
:1032700006D00950075E0A50085A0D8000D0D89039
:103280000A3209320B2EECD700D00C50D8B405D03E
:103290000D6C0E1ED8B00E2A00D00DC007F00EC067
:1032A00008F000D0120043AE17D041C047F042C032
:1032B00048F043C049F0471E481E491E472A000EE9
:1032C00048224922000E4724416E000E4820426EDB
:1032D000800E4920436E00D046AE17D044C047F060
:1032E00045C048F046C049F0471E481E491E472ABF
:1032F000000E48224922000E4724446E000E48204A
:10330000456E800E4920466E00D0000E411A000E18
:10331000421A800E431A000E441A000E451A800EFF
:10332000461A4450415C4550425846504358D8B024
:1033300002D0D89002D0D88000D01200000E096EC2
:10334000000E0A6E000E0B6E000E0C6E055006107D
:1033500007100810D8B42FD0010E0D6E07D0D890EA
:1033600005360636073608360D2A00D008BE02D0CC
:10337000F6D700D0D89009360A360B360C360550F1
:10338000015C065002580750035808500458D8A052
:103390000AD00550015E0650025A0750035A0850E1
:1033A000045A098000D0D89008320732063205321C
:1033B0000D2EE0D700D009C001F00AC002F00BC00A
:1033C00003F00CC004F01200000E066E02AE07D02F
:1033D000016C021ED8B0022A010E066E00D004AEA7
:1033E00005D0036C041ED8B0042A00D0035004108A
:1033F000D8B41DD0010E056E05D0D8900336043622
:10340000052A00D004BE02D0F8D700D00350015CDA
:1034100004500258D8A005D00350015E0450025A4F
:1034200000D0D89004320332052EF0D700D00650D9
:10343000D8B405D0016C021ED8B0022A00D001C059
:1034400001F002C002F000D0120005500610071073
:103450000810D8B429D0010E096E07D0D8900536CF
:10346000063607360836092A00D008BE02D0F6D73D
:1034700000D00550015C0650025807500358085010
:103480000458D8A009D00550015E0650025A0750D2
:10349000035A0850045A00D0D89008320732063236
:1034A0000532092EE6D700D001C001F002C002F0BB
:1034B00003C003F004C004F012008E0E186E07D093
:1034C000D8901332123211321032182A00D0000E66
:1034D0001014146E000E1114156E000E1214166ED8
:1034E000FF0E1314176E1450151016101710D8A4D1
:1034F000E7D710C001F011C002F012C003F018C0ED
:1035000004F0000E056EF5EC17F001C010F002C0DB
:1035100011F003C012F000D01200056E000EC26E52
:10352000000EC06ED89001303C0BC26E01C003F09B
:10353000033AF00E0316300E031602500F0B031061
:10354000C16E05C003F0D8900336D8900336380E0C
:10355000031605C004F0043A0F0E0416070E0416F5
:103560000550800B04100310C06E01AE03D09E9C6A
:103570009D8CF28CC2801200000E066E000E056E4D
:1035800003500410D8B421D0010E076E05D0D89096
:1035900003360436072A00D004BE02D0F8D700D084
:1035A000D890053606360350015C04500258D8A066
:1035B00006D00350015E0450025A058000D0D89016
:1035C00004320332072EECD700D005C001F006C04C
:1035D00002F01200056EF00E9316F00E81160550E3
:1035E000026E036A028E040E046E0334033202324A
:1035F000042EFBD702500F0B81128A9C8A9AECECA6
:103600001CF08A88ECEC1CF08A98F00E81160550AC
:103610000F0B8112ECEC1CF08A88ECEC1CF08A9801
:103620000F0E931200D0120003500410D8B41DD016
:10363000010E056E05D0D89003360436052A00D059
:1036400004BE02D0F8D700D00350015C04500258E9
:10365000D8A005D00350015E0450025A00D0D89083
:1036600004320332052EF0D700D001C001F002C0B1
:1036700002F0120011C017F012C018F014AE0DD0F5
:1036800011C0D9FF12C0DAFF2D0EDF6E114A122AC7
:10369000136C141ED8B0142A00D011C008F012C048
:1036A00009F013C00AF014C00BF015C00CF016C0DE
:1036B0000DF0B3EC18F000D0120044504510461045
:1036C000D8B407D0000E441A000E451A800E461AD0
:1036D00000D041C035F042C036F043C037F044C09E
:1036E00038F045C039F046C03AF031EC14F035C03E
:1036F00041F036C042F037C043F000D01200026EF5
:10370000F00E9316F00E811602380F0B0F0B81127C
:103710008A8A8A9CECEC1CF08A88ECEC1CF08A9873
:10372000F00E811602500F0B8112ECEC1CF08A880F
:10373000ECEC1CF08A980F0E931200D01200026E6F
:10374000F00E9316F00E811602380F0B0F0B81123C
:103750008A9C8A9AECEC1CF08A88ECEC1CF08A9823
:10376000F00E811602500F0B8112ECEC1CF08A88CF
:10377000ECEC1CF08A980F0E931200D012008A8C89
:103780008A9AECEC1CF08A88ECEC1CF081A60AD03A
:103790008A98ECEC1CF08A88ECEC1CF08A988A9CE5
:1037A000010E0AD08A98ECEC1CF08A88ECEC1CF034
:1037B0008A988A9C000E00D0120011D000D0BFEC75
:1037C0001BF00009D8A4FBD703C0F6FF04C0F7FF25
:1037D0000800F5507FEC1BF0034A042A00D003C018
:1037E000F6FF04C0F7FF0800F5500009D8A4E7D79A
:1037F0001200026E000E036E12D0000E046E630EF5
:10380000046401D00AD01A0E016EF80EE82EFED71D
:10381000012EFCD700D0042AF2D7032A00D0025090
:10382000035CD8A0EAD7120010D000D0BFEC1BF088
:103830000009D8A4FBD703C0D9FF04C0DAFFDF50CA
:103840007FEC1BF0034A042A00D003C0D9FF04C058
:10385000DAFFDF50D8A4EAD712000F501102F3CFDD
:1038600013F0F4CF14F00F501202F350142610503E
:103870001102F350142613C00FF014C010F000D042
:10388000120009C001F00AC002F0036A8E0E046E35
:10389000000E056EF5EC17F001C009F002C00AF049
:1038A00003C00BF000D0120019501A101B10D8B42E
:1038B00006D0000E191A000E1A1A800E1B1A19C013
:1038C00019F01AC01AF01BC01BF0120000EE80F0B5
:1038D000170EEE6AE806FDE100EE76F00A0EEE6ADB
:1038E000E806FDE1000EF86E00015AEF11F0036EDC
:1038F000000E026E3A0E036006D02F0E036403D052
:10390000010E026E00D002C001F0013000D01200A2
:10391000076E0740E842C00B0624C00F086E00D0B7
:10392000BFEC1BF00009D8A4FBD70850EAEC1AF052
:103930001200280E58EC18F000D0BFEC1BF0000964
:10394000D8A4FBD7060E9FEC1BF00C0E9FEC1BF0CF
:103950001200026E0D0E016EFC0EE82EFED7012E37
:10396000FCD7022EF7D700D0120000D0BFEC1BF01E
:103970000009D8A4FBD7010E9FEC1BF01200016ECA
:10398000FA0E00F0E82EFDD7012EFAD700D0120073
:10399000016E030EE82EFED700F0012EFAD700D0FC
:1039A0001200040E016EFE0E026E830E8DEC1AF0F4
:1039B0001200C450036EC350016E03C002F000D069
:1039C0001200C2A202D0010E02D0000E00D01200DE
:1039D0001E0EBFEC1CF01200140EC8EC1CF01200FE
:0439E000C28212008D
:020000040020DA
:08000000FFFFFFFFFFFFFFFF00
:020000040030CA
:0E000000FF08191EFF8185FF0FC00FE00F40A3
:00000001FF
